{
  "transactions": [
    {
      "hash": "0xc09a76f529997910bd047cdf6e4a9083892c69c09ffa1d830cd0feb43b909015",
      "transactionType": "CALL",
      "contractName": null,
      "contractAddress": "0xe7bf5d16190f4d7d4c1ae99250405702d2f0a442",
      "function": "mint(address,uint256)",
      "arguments": [
        "0xffecdeA299A1aa7Ad213731C6e6D8363a5A723D2",
        "10000000000"
      ],
      "transaction": {
        "from": "0xffecdea299a1aa7ad213731c6e6d8363a5a723d2",
        "to": "0xe7bf5d16190f4d7d4c1ae99250405702d2f0a442",
        "gas": "0x184e4",
        "value": "0x0",
        "input": "0x40c10f19000000000000000000000000ffecdea299a1aa7ad213731c6e6d8363a5a723d200000000000000000000000000000000000000000000000000000002540be400",
        "nonce": "0xb",
        "chainId": "0x3a57530b3714"
      },
      "additionalContracts": [],
      "isFixedGasLimit": false
    },
    {
      "hash": "0x041741910d458267cd3498d620f17f598a7a6a61ef420b956893e840d0a16af8",
      "transactionType": "CALL",
      "contractName": null,
      "contractAddress": "0xe7bf5d16190f4d7d4c1ae99250405702d2f0a442",
      "function": "approve(address,uint256)",
      "arguments": [
        "0x62d244f304Bc7638D44f5e335DFaDF8c9DCef990",
        "115792089237316195423570985008687907853269984665640564039457584007913129639935"
      ],
      "transaction": {
        "from": "0xffecdea299a1aa7ad213731c6e6d8363a5a723d2",
        "to": "0xe7bf5d16190f4d7d4c1ae99250405702d2f0a442",
        "gas": "0xf9a4",
        "value": "0x0",
        "input": "0x095ea7b300000000000000000000000062d244f304bc7638d44f5e335dfadf8c9dcef990ffffffffffffffffffffffffffffffffffffffffffffffffffffffffffffffff",
        "nonce": "0xc",
        "chainId": "0x3a57530b3714"
      },
      "additionalContracts": [],
      "isFixedGasLimit": false
    },
    {
      "hash": "0x66dcddabf94403aa0ff8002b39fc65b2b7f3d158f3fae4637fef74a065b6cb95",
      "transactionType": "CALL",
      "contractName": null,
      "contractAddress": "0x62d244f304bc7638d44f5e335dfadf8c9dcef990",
      "function": "createCircle(string,string,address,uint256,uint256,uint256,uint256,uint256,bool,uint8,string)",
      "arguments": [
        "Arisan Demo Hackathon",
        "Demo circle for INITIATE judges. Join, deposit, toggle auto-sign.",
        "0xe7bf5d16190f4d7d4c1aE99250405702d2f0a442",
        "100000000",
        "3",
        "120",
        "60",
        "500",
        "true",
        "0",
        "creator.init"
      ],
      "transaction": {
        "from": "0xffecdea299a1aa7ad213731c6e6d8363a5a723d2",
        "to": "0x62d244f304bc7638d44f5e335dfadf8c9dcef990",
        "gas": "0x124dbe",
        "value": "0x0",
        "input": "0x3c602bed000000000000000000000000000000000000000000000000000000000000016000000000000000000000000000000000000000000000000000000000000001a0000000000000000000000000e7bf5d16190f4d7d4c1ae99250405702d2f0a4420000000000000000000000000000000000000000000000000000000005f5e10000000000000000000000000000000000000000000000000000000000000000030000000000000000000000000000000000000000000000000000000000000078000000000000000000000000000000000000000000000000000000000000003c00000000000000000000000000000000000000000000000000000000000001f4000000000000000000000000000000000000000000000000000000000000000100000000000000000000000000000000000000000000000000000000000000000000000000000000000000000000000000000000000000000000000000000220000000000000000000000000000000000000000000000000000000000000001541726973616e2044656d6f204861636b6174686f6e0000000000000000000000000000000000000000000000000000000000000000000000000000000000004144656d6f20636972636c6520666f7220494e495449415445206a75646765732e204a6f696e2c206465706f7369742c20746f67676c65206175746f2d7369676e2e00000000000000000000000000000000000000000000000000000000000000000000000000000000000000000000000000000000000000000000000000000c63726561746f722e696e69740000000000000000000000000000000000000000",
        "nonce": "0xd",
        "chainId": "0x3a57530b3714"
      },
      "additionalContracts": [],
      "isFixedGasLimit": false
    }
  ],
  "receipts": [],
  "libraries": [],
  "pending": [],
  "returns": {},
  "timestamp": 1777052085809,
  "chain": 64146729809684,
  "commit": "08d3e1a"
}